{
  "transactions": [
    {
      "hash": "0x27a560e4fd2a863135202eca678d4a96e3080768223ff2dbf38b359448f0ff6a",
      "transactionType": "CALL",
      "contractName": null,
      "contractAddress": "0xddee40cf24c386065faa69ff1afd8b39440a520f",
      "function": "splitTVS(uint256[],uint256)",
      "arguments": [
        "[5000, 5000]",
        "2"
      ],
      "transaction": {
        "from": "0x2cfe8373b1fa949a4e176b46bb3f9b5bf08d233e",
        "to": "0xddee40cf24c386065faa69ff1afd8b39440a520f",
        "gas": "0x9a5bb",
        "value": "0x0",
        "input": "0x5829234f00000000000000000000000000000000000000000000000000000000000000400000000000000000000000000000000000000000000000000000000000000002000000000000000000000000000000000000000000000000000000000000000200000000000000000000000000000000000000000000000000000000000013880000000000000000000000000000000000000000000000000000000000001388",
        "nonce": "0xd2",
        "chainId": "0x66eee"
      },
      "additionalContracts": [],
      "isFixedGasLimit": false
    }
  ],
  "receipts": [
    {
      "status": "0x1",
      "cumulativeGasUsed": "0x8106b",
      "logs": [
        {
          "address": "0x4283dca2bfc64923b392dad0b0b2f8953dc79aab",
          "topics": [
            "0xddf252ad1be2c89b69c2b068fc378daa952ba7f163c4a11628f55a4df523b3ef",
            "0x000000000000000000000000ddee40cf24c386065faa69ff1afd8b39440a520f",
            "0x00000000000000000000000064e6728d28d323dd17b4232857b3a8e3ab9194d9"
          ],
          "data": "0x0000000000000000000000000000000000000000000000000000000000000000",
          "blockHash": "0xeb03fe43a4ed5d0384a3b65a18660d30d5a034f53c5c3de775dd56e74d104757",
          "blockNumber": "0xd0c1d9e",
          "blockTimestamp": "0x692600f1",
          "transactionHash": "0x27a560e4fd2a863135202eca678d4a96e3080768223ff2dbf38b359448f0ff6a",
          "transactionIndex": "0x2",
          "logIndex": "0x1",
          "removed": false
        },
        {
          "address": "0xddee40cf24c386065faa69ff1afd8b39440a520f",
          "topics": [
            "0xec5578470f21833acea2a45ff08f06faad6df623d95a5fdb65cf8762467c2156",
            "0x0000000000000000000000000000000000000000000000000000000000000000",
            "0x0000000000000000000000000000000000000000000000000000000000000002",
            "0x0000000000000000000000000000000000000000000000000000000000000002"
          ],
          "data": "0x000000000000000000000000000000000000000000000000000000000000000100000000000000000000000000000000000000000000003cfc82e37e9a7400000000000000000000000000000000000000000000000000000000000000278d00000000000000000000000000000000000000000000000000000000006925e2b40000000000000000000000000000000000000000000000000000000000000000",
          "blockHash": "0xeb03fe43a4ed5d0384a3b65a18660d30d5a034f53c5c3de775dd56e74d104757",
          "blockNumber": "0xd0c1d9e",
          "blockTimestamp": "0x692600f1",
          "transactionHash": "0x27a560e4fd2a863135202eca678d4a96e3080768223ff2dbf38b359448f0ff6a",
          "transactionIndex": "0x2",
          "logIndex": "0x2",
          "removed": false
        },
        {
          "address": "0x93c6b68711fe716d3ea4d5ee0b6091add6de3abe",
          "topics": [
            "0xddf252ad1be2c89b69c2b068fc378daa952ba7f163c4a11628f55a4df523b3ef",
            "0x0000000000000000000000000000000000000000000000000000000000000000",
            "0x0000000000000000000000002cfe8373b1fa949a4e176b46bb3f9b5bf08d233e",
            "0x0000000000000000000000000000000000000000000000000000000000000003"
          ],
          "data": "0x",
          "blockHash": "0xeb03fe43a4ed5d0384a3b65a18660d30d5a034f53c5c3de775dd56e74d104757",
          "blockNumber": "0xd0c1d9e",
          "blockTimestamp": "0x692600f1",
          "transactionHash": "0x27a560e4fd2a863135202eca678d4a96e3080768223ff2dbf38b359448f0ff6a",
          "transactionIndex": "0x2",
          "logIndex": "0x3",
          "removed": false
        },
        {
          "address": "0x93c6b68711fe716d3ea4d5ee0b6091add6de3abe",
          "topics": [
            "0x30385c845b448a36257a6a1716e6ad2e1bc2cbe333cde1e69fe849ad6511adfe",
            "0x0000000000000000000000002cfe8373b1fa949a4e176b46bb3f9b5bf08d233e",
            "0x0000000000000000000000000000000000000000000000000000000000000003"
          ],
          "data": "0x",
          "blockHash": "0xeb03fe43a4ed5d0384a3b65a18660d30d5a034f53c5c3de775dd56e74d104757",
          "blockNumber": "0xd0c1d9e",
          "blockTimestamp": "0x692600f1",
          "transactionHash": "0x27a560e4fd2a863135202eca678d4a96e3080768223ff2dbf38b359448f0ff6a",
          "transactionIndex": "0x2",
          "logIndex": "0x4",
          "removed": false
        },
        {
          "address": "0xddee40cf24c386065faa69ff1afd8b39440a520f",
          "topics": [
            "0xec5578470f21833acea2a45ff08f06faad6df623d95a5fdb65cf8762467c2156",
            "0x0000000000000000000000000000000000000000000000000000000000000000",
            "0x0000000000000000000000000000000000000000000000000000000000000002",
            "0x0000000000000000000000000000000000000000000000000000000000000003"
          ],
          "data": "0x000000000000000000000000000000000000000000000000000000000000000100000000000000000000000000000000000000000000003cfc82e37e9a7400000000000000000000000000000000000000000000000000000000000000278d00000000000000000000000000000000000000000000000000000000006925e2b40000000000000000000000000000000000000000000000000000000000000000",
          "blockHash": "0xeb03fe43a4ed5d0384a3b65a18660d30d5a034f53c5c3de775dd56e74d104757",
          "blockNumber": "0xd0c1d9e",
          "blockTimestamp": "0x692600f1",
          "transactionHash": "0x27a560e4fd2a863135202eca678d4a96e3080768223ff2dbf38b359448f0ff6a",
          "transactionIndex": "0x2",
          "logIndex": "0x5",
          "removed": false
        }
      ],
      "logsBloom": "0x040000000080000000000000000000000000000000000000000000000000000200000000000000001000000000000000000000000200008000000000000000000000000000000000000000081000000000000000000000000020000000000000000000000200000000000000000008000200000000000000800000100000000000004000000000000000000000001008000000000000000100000000000000000000080000000000000011000000000000000000008000000000000000004c0000000002000000000000000000008204000000000040000000000000000020020000000000000000000000040000000080000000008000400000000000000000",
      "type": "0x2",
      "transactionHash": "0x27a560e4fd2a863135202eca678d4a96e3080768223ff2dbf38b359448f0ff6a",
      "transactionIndex": "0x2",
      "blockHash": "0xeb03fe43a4ed5d0384a3b65a18660d30d5a034f53c5c3de775dd56e74d104757",
      "blockNumber": "0xd0c1d9e",
      "gasUsed": "0x72f40",
      "effectiveGasPrice": "0x1312d00",
      "from": "0x2cfe8373b1fa949a4e176b46bb3f9b5bf08d233e",
      "to": "0xddee40cf24c386065faa69ff1afd8b39440a520f",
      "contractAddress": null,
      "gasUsedForL1": "0x0",
      "l1BlockNumber": "0x941901",
      "timeboosted": false
    }
  ],
  "libraries": [],
  "pending": [],
  "returns": {},
  "timestamp": 1764098290,
  "chain": 421614,
  "commit": "fe6e290"
}