{
  "transactions": [
    {
      "hash": null,
      "transactionType": "CALL",
      "contractName": null,
      "contractAddress": "0xddee40cf24c386065faa69ff1afd8b39440a520f",
      "function": "splitTVS(uint256[],uint256)",
      "arguments": [
        "[5000, 5000]",
        "2"
      ],
      "transaction": {
        "from": "0x2cfe8373b1fa949a4e176b46bb3f9b5bf08d233e",
        "to": "0xddee40cf24c386065faa69ff1afd8b39440a520f",
        "gas": "0x9a5bb",
        "value": "0x0",
        "input": "0x5829234f00000000000000000000000000000000000000000000000000000000000000400000000000000000000000000000000000000000000000000000000000000002000000000000000000000000000000000000000000000000000000000000000200000000000000000000000000000000000000000000000000000000000013880000000000000000000000000000000000000000000000000000000000001388",
        "nonce": "0xd4",
        "chainId": "0x66eee"
      },
      "additionalContracts": [],
      "isFixedGasLimit": false
    }
  ],
  "receipts": [],
  "libraries": [],
  "pending": [],
  "returns": {},
  "timestamp": 1764159650,
  "chain": 421614,
  "commit": "fe6e290"
}